{
  "contractName": "TRYlottery",
  "abi": [
    {
      "inputs": [
        {
          "internalType": "uint256",
          "name": "blocksNum_",
          "type": "uint256"
        },
        {
          "internalType": "uint256",
          "name": "_ticketPrice",
          "type": "uint256"
        },
        {
          "internalType": "address payable",
          "name": "transferAddress_",
          "type": "address"
        },
        {
          "internalType": "address",
          "name": "_NFTAddress",
          "type": "address"
        }
      ],
      "stateMutability": "nonpayable",
      "type": "constructor"
    },
    {
      "anonymous": false,
      "inputs": [
        {
          "indexed": false,
          "internalType": "address",
          "name": "contractAddress",
          "type": "address"
        }
      ],
      "name": "LotteryClosed",
      "type": "event"
    },
    {
      "anonymous": false,
      "inputs": [
        {
          "indexed": false,
          "internalType": "address",
          "name": "atAddress",
          "type": "address"
        },
        {
          "indexed": false,
          "internalType": "uint256",
          "name": "atBlock",
          "type": "uint256"
        }
      ],
      "name": "LotteryOpened",
      "type": "event"
    },
    {
      "anonymous": false,
      "inputs": [
        {
          "indexed": false,
          "internalType": "uint256",
          "name": "roundClosesAtBlock",
          "type": "uint256"
        }
      ],
      "name": "NewRoundStarted",
      "type": "event"
    },
    {
      "anonymous": false,
      "inputs": [
        {
          "components": [
            {
              "internalType": "uint8",
              "name": "first",
              "type": "uint8"
            },
            {
              "internalType": "uint8",
              "name": "second",
              "type": "uint8"
            },
            {
              "internalType": "uint8",
              "name": "third",
              "type": "uint8"
            },
            {
              "internalType": "uint8",
              "name": "fourth",
              "type": "uint8"
            },
            {
              "internalType": "uint8",
              "name": "fifth",
              "type": "uint8"
            },
            {
              "internalType": "uint8",
              "name": "powerball",
              "type": "uint8"
            }
          ],
          "indexed": false,
          "internalType": "struct TRYlottery.ticket",
          "name": "winningNumbers",
          "type": "tuple"
        }
      ],
      "name": "NumbersDrawn",
      "type": "event"
    },
    {
      "anonymous": false,
      "inputs": [
        {
          "indexed": false,
          "internalType": "address",
          "name": "buyer",
          "type": "address"
        },
        {
          "components": [
            {
              "internalType": "uint8",
              "name": "first",
              "type": "uint8"
            },
            {
              "internalType": "uint8",
              "name": "second",
              "type": "uint8"
            },
            {
              "internalType": "uint8",
              "name": "third",
              "type": "uint8"
            },
            {
              "internalType": "uint8",
              "name": "fourth",
              "type": "uint8"
            },
            {
              "internalType": "uint8",
              "name": "fifth",
              "type": "uint8"
            },
            {
              "internalType": "uint8",
              "name": "powerball",
              "type": "uint8"
            }
          ],
          "indexed": false,
          "internalType": "struct TRYlottery.ticket",
          "name": "userTicket",
          "type": "tuple"
        }
      ],
      "name": "TicketBought",
      "type": "event"
    },
    {
      "anonymous": false,
      "inputs": [
        {
          "indexed": false,
          "internalType": "uint256",
          "name": "tokenId",
          "type": "uint256"
        },
        {
          "indexed": false,
          "internalType": "uint256",
          "name": "classNum",
          "type": "uint256"
        }
      ],
      "name": "TokenMinted",
      "type": "event"
    },
    {
      "anonymous": false,
      "inputs": [
        {
          "indexed": false,
          "internalType": "uint256",
          "name": "ticketClass",
          "type": "uint256"
        },
        {
          "indexed": false,
          "internalType": "string",
          "name": "NFTName",
          "type": "string"
        },
        {
          "indexed": false,
          "internalType": "string",
          "name": "NFTSymbol",
          "type": "string"
        },
        {
          "indexed": false,
          "internalType": "string",
          "name": "tokenURI",
          "type": "string"
        },
        {
          "indexed": false,
          "internalType": "address",
          "name": "winner",
          "type": "address"
        }
      ],
      "name": "WinningTicket",
      "type": "event"
    },
    {
      "inputs": [],
      "name": "currentRoundClosing",
      "outputs": [
        {
          "internalType": "uint256",
          "name": "",
          "type": "uint256"
        }
      ],
      "stateMutability": "view",
      "type": "function"
    },
    {
      "inputs": [],
      "name": "lotteryNFT",
      "outputs": [
        {
          "internalType": "contract TRYNFT",
          "name": "",
          "type": "address"
        }
      ],
      "stateMutability": "view",
      "type": "function"
    },
    {
      "inputs": [],
      "name": "ticketPrice",
      "outputs": [
        {
          "internalType": "uint256",
          "name": "",
          "type": "uint256"
        }
      ],
      "stateMutability": "view",
      "type": "function"
    },
    {
      "inputs": [],
      "name": "winningTicket",
      "outputs": [
        {
          "internalType": "uint8",
          "name": "first",
          "type": "uint8"
        },
        {
          "internalType": "uint8",
          "name": "second",
          "type": "uint8"
        },
        {
          "internalType": "uint8",
          "name": "third",
          "type": "uint8"
        },
        {
          "internalType": "uint8",
          "name": "fourth",
          "type": "uint8"
        },
        {
          "internalType": "uint8",
          "name": "fifth",
          "type": "uint8"
        },
        {
          "internalType": "uint8",
          "name": "powerball",
          "type": "uint8"
        }
      ],
      "stateMutability": "view",
      "type": "function"
    },
    {
      "inputs": [],
      "name": "startNewRound",
      "outputs": [],
      "stateMutability": "nonpayable",
      "type": "function"
    },
    {
      "inputs": [
        {
          "internalType": "uint8",
          "name": "num1",
          "type": "uint8"
        },
        {
          "internalType": "uint8",
          "name": "num2",
          "type": "uint8"
        },
        {
          "internalType": "uint8",
          "name": "num3",
          "type": "uint8"
        },
        {
          "internalType": "uint8",
          "name": "num4",
          "type": "uint8"
        },
        {
          "internalType": "uint8",
          "name": "num5",
          "type": "uint8"
        },
        {
          "internalType": "uint8",
          "name": "num6",
          "type": "uint8"
        }
      ],
      "name": "buy",
      "outputs": [],
      "stateMutability": "payable",
      "type": "function"
    },
    {
      "inputs": [],
      "name": "drawNumbers",
      "outputs": [],
      "stateMutability": "nonpayable",
      "type": "function"
    },
    {
      "inputs": [],
      "name": "givePrizes",
      "outputs": [],
      "stateMutability": "nonpayable",
      "type": "function"
    },
    {
      "inputs": [
        {
          "internalType": "string",
          "name": "tokenURI",
          "type": "string"
        }
      ],
      "name": "mint",
      "outputs": [],
      "stateMutability": "nonpayable",
      "type": "function"
    },
    {
      "inputs": [],
      "name": "closeLottery",
      "outputs": [],
      "stateMutability": "nonpayable",
      "type": "function"
    },
    {
      "inputs": [],
      "name": "getOperator",
      "outputs": [
        {
          "internalType": "address",
          "name": "",
          "type": "address"
        }
      ],
      "stateMutability": "view",
      "type": "function"
    }
  ],
  "bytecode": "0x60c06040523480156200001157600080fd5b506040516200385f3803806200385f8339818101604052810190620000379190620002fe565b600083116200007d576040517f08c379a00000000000000000000000000000000000000000000000000000000081526004016200007490620003f7565b60405180910390fd5b60008411620000c3576040517f08c379a0000000000000000000000000000000000000000000000000000000008152600401620000ba906200048f565b60405180910390fd5b83600281905550633b9aca0083620000dc9190620004e0565b60a0818152505033600460006101000a81548173ffffffffffffffffffffffffffffffffffffffff021916908373ffffffffffffffffffffffffffffffffffffffff1602179055508173ffffffffffffffffffffffffffffffffffffffff1660808173ffffffffffffffffffffffffffffffffffffffff16815250506001600460146101000a81548160ff0219169083151502179055506001600460156101000a81548160ff02191690831515021790555080600860006101000a81548173ffffffffffffffffffffffffffffffffffffffff021916908373ffffffffffffffffffffffffffffffffffffffff1602179055507ff4b880c0f017eb66e58639a82599059f5c5d35f11970be24d270c1ec954a279d30436040516200020292919062000563565b60405180910390a15050505062000590565b600080fd5b6000819050919050565b6200022e8162000219565b81146200023a57600080fd5b50565b6000815190506200024e8162000223565b92915050565b600073ffffffffffffffffffffffffffffffffffffffff82169050919050565b6000620002818262000254565b9050919050565b620002938162000274565b81146200029f57600080fd5b50565b600081519050620002b38162000288565b92915050565b6000620002c68262000254565b9050919050565b620002d881620002b9565b8114620002e457600080fd5b50565b600081519050620002f881620002cd565b92915050565b600080600080608085870312156200031b576200031a62000214565b5b60006200032b878288016200023d565b94505060206200033e878288016200023d565b93505060406200035187828801620002a2565b92505060606200036487828801620002e7565b91505092959194509250565b600082825260208201905092915050565b7f5469636b657427732070726963652068617320746f206265206772656174657260008201527f207468616e203000000000000000000000000000000000000000000000000000602082015250565b6000620003df60278362000370565b9150620003ec8262000381565b604082019050919050565b600060208201905081810360008301526200041281620003d0565b9050919050565b7f546865206c656e677468206f662074686520726f756e642068617320746f206260008201527f65203e3d20310000000000000000000000000000000000000000000000000000602082015250565b60006200047760268362000370565b9150620004848262000419565b604082019050919050565b60006020820190508181036000830152620004aa8162000468565b9050919050565b7f4e487b7100000000000000000000000000000000000000000000000000000000600052601160045260246000fd5b6000620004ed8262000219565b9150620004fa8362000219565b9250817fffffffffffffffffffffffffffffffffffffffffffffffffffffffffffffffff0483118215151615620005365762000535620004b1565b5b828202905092915050565b6200054c81620002b9565b82525050565b6200055d8162000219565b82525050565b60006040820190506200057a600083018562000541565b62000589602083018462000552565b9392505050565b60805160a051613294620005cb60003960008181610c9e0152818161120501526112fd015260008181610c35015261127701526132946000f3fe60806040526004361061009c5760003560e01c8063ab3e7b3211610064578063ab3e7b321461013c578063bd85948c14610158578063c26eea541461016f578063d85d3d271461019f578063e7f43c68146101c8578063e8adfbc7146101f35761009c565b806306d5ee54146100a15780631209b1f6146100b85780635ed6a940146100e3578063676c902f1461010e5780636fd0981614610125575b600080fd5b3480156100ad57600080fd5b506100b661021e565b005b3480156100c457600080fd5b506100cd610c9c565b6040516100da919061219a565b60405180910390f35b3480156100ef57600080fd5b506100f8610cc0565b604051610105919061219a565b60405180910390f35b34801561011a57600080fd5b50610123610cc6565b005b34801561013157600080fd5b5061013a61106d565b005b61015660048036038101906101519190612202565b6112ae565b005b34801561016457600080fd5b5061016d611602565b005b34801561017b57600080fd5b50610184611840565b6040516101969695949392919061229e565b60405180910390f35b3480156101ab57600080fd5b506101c660048036038101906101c19190612445565b6118b8565b005b3480156101d457600080fd5b506101dd611b6b565b6040516101ea91906124cf565b60405180910390f35b3480156101ff57600080fd5b50610208611b95565b6040516102159190612549565b60405180910390f35b3373ffffffffffffffffffffffffffffffffffffffff16600460009054906101000a900473ffffffffffffffffffffffffffffffffffffffff1673ffffffffffffffffffffffffffffffffffffffff16146102ae576040517f08c379a00000000000000000000000000000000000000000000000000000000081526004016102a5906125c1565b60405180910390fd5b600460149054906101000a900460ff16156102fe576040517f08c379a00000000000000000000000000000000000000000000000000000000081526004016102f590612653565b60405180910390fd5b600460159054906101000a900460ff1661034d576040517f08c379a0000000000000000000000000000000000000000000000000000000008152600401610344906126e5565b60405180910390fd5b60005b600180549050811015610b9a5760005b6000806001848154811061037757610376612705565b5b9060005260206000200160009054906101000a900473ffffffffffffffffffffffffffffffffffffffff1673ffffffffffffffffffffffffffffffffffffffff1673ffffffffffffffffffffffffffffffffffffffff16815260200190815260200160002080549050811015610b005760008060008060006001878154811061040357610402612705565b5b9060005260206000200160009054906101000a900473ffffffffffffffffffffffffffffffffffffffff1673ffffffffffffffffffffffffffffffffffffffff1673ffffffffffffffffffffffffffffffffffffffff168152602001908152602001600020848154811061047a57610479612705565b5b906000526020600020016040518060c00160405290816000820160009054906101000a900460ff1660ff1660ff1681526020016000820160019054906101000a900460ff1660ff1660ff1681526020016000820160029054906101000a900460ff1660ff1660ff1681526020016000820160039054906101000a900460ff1660ff1660ff1681526020016000820160049054906101000a900460ff1660ff1660ff1681526020016000820160059054906101000a900460ff1660ff1660ff1681525050905061054c8160000151611bbb565b61055757600061055a565b60015b836105659190612763565b92506105748160200151611bbb565b61057f576000610582565b60015b8361058d9190612763565b925061059c8160400151611bbb565b6105a75760006105aa565b60015b836105b59190612763565b92506105c48160600151611bbb565b6105cf5760006105d2565b60015b836105dd9190612763565b92506105ec8160800151611bbb565b6105f75760006105fa565b60015b836106059190612763565b92506106148160a00151611bbb565b915060006106228484611c89565b9050600081036106355750505050610aef565b60006005600083815260200190815260200160002080549050905060008103610662575050505050610aef565b6000600860009054906101000a900473ffffffffffffffffffffffffffffffffffffffff1673ffffffffffffffffffffffffffffffffffffffff1663c87b56dd600560008681526020019081526020016000206000815481106106c8576106c7612705565b5b90600052602060002001546040518263ffffffff1660e01b81526004016106ef919061219a565b600060405180830381865afa15801561070c573d6000803e3d6000fd5b505050506040513d6000823e3d601f19601f82011682018060405250810190610735919061283d565b905060006001830361074657600190505b6000600560008681526020019081526020016000206001856107689190612886565b8154811061077957610778612705565b5b90600052602060002001549050600860009054906101000a900473ffffffffffffffffffffffffffffffffffffffff1673ffffffffffffffffffffffffffffffffffffffff166323b872dd3060018d815481106107d9576107d8612705565b5b9060005260206000200160009054906101000a900473ffffffffffffffffffffffffffffffffffffffff16846040518463ffffffff1660e01b8152600401610823939291906128db565b600060405180830381600087803b15801561083d57600080fd5b505af1158015610851573d6000803e3d6000fd5b505050507f7fa2a90034333f8941cca3d765f513f799cd32625e4eed4d770e5e85ba40972885600860009054906101000a900473ffffffffffffffffffffffffffffffffffffffff1673ffffffffffffffffffffffffffffffffffffffff166306fdde036040518163ffffffff1660e01b8152600401600060405180830381865afa1580156108e4573d6000803e3d6000fd5b505050506040513d6000823e3d601f19601f8201168201806040525081019061090d919061283d565b600860009054906101000a900473ffffffffffffffffffffffffffffffffffffffff1673ffffffffffffffffffffffffffffffffffffffff166395d89b416040518163ffffffff1660e01b8152600401600060405180830381865afa15801561097a573d6000803e3d6000fd5b505050506040513d6000823e3d601f19601f820116820180604052508101906109a3919061283d565b600860009054906101000a900473ffffffffffffffffffffffffffffffffffffffff1673ffffffffffffffffffffffffffffffffffffffff1663c87b56dd866040518263ffffffff1660e01b81526004016109fe919061219a565b600060405180830381865afa158015610a1b573d6000803e3d6000fd5b505050506040513d6000823e3d601f19601f82011682018060405250810190610a44919061283d565b60018f81548110610a5857610a57612705565b5b9060005260206000200160009054906101000a900473ffffffffffffffffffffffffffffffffffffffff16604051610a94959493929190612956565b60405180910390a160056000868152602001908152602001600020805480610abf57610abe6129be565b5b600190038181906000526020600020016000905590558115610ae657610ae58386611d54565b5b50505050505050505b80610af9906129ed565b9050610360565b5060008060018381548110610b1857610b17612705565b5b9060005260206000200160009054906101000a900473ffffffffffffffffffffffffffffffffffffffff1673ffffffffffffffffffffffffffffffffffffffff1673ffffffffffffffffffffffffffffffffffffffff1681526020019081526020016000206000610b899190612093565b80610b93906129ed565b9050610350565b506001600460146101000a81548160ff0219169083151502179055506007600080820160006101000a81549060ff02191690556000820160016101000a81549060ff02191690556000820160026101000a81549060ff02191690556000820160036101000a81549060ff02191690556000820160046101000a81549060ff02191690556000820160056101000a81549060ff021916905550507f000000000000000000000000000000000000000000000000000000000000000073ffffffffffffffffffffffffffffffffffffffff166108fc479081150290604051600060405180830381858888f19350505050158015610c99573d6000803e3d6000fd5b50565b7f000000000000000000000000000000000000000000000000000000000000000081565b60065481565b3373ffffffffffffffffffffffffffffffffffffffff16600460009054906101000a900473ffffffffffffffffffffffffffffffffffffffff1673ffffffffffffffffffffffffffffffffffffffff1614610d56576040517f08c379a0000000000000000000000000000000000000000000000000000000008152600401610d4d906125c1565b60405180910390fd5b610d5e611f00565b15610d9e576040517f08c379a0000000000000000000000000000000000000000000000000000000008152600401610d9590612aa7565b60405180910390fd5b600460159054906101000a900460ff1615610dee576040517f08c379a0000000000000000000000000000000000000000000000000000000008152600401610de590612b13565b60405180910390fd5b600143610dfb9190612886565b40600354604051602001610e10929190612b5e565b6040516020818303038152906040528051906020012060038190555060016045600354600060208110610e4657610e45612705565b5b1a60f81b60f81c610e579190612bb9565b610e619190612763565b600760000160006101000a81548160ff021916908360ff16021790555060016045600354600160208110610e9857610e97612705565b5b1a60f81b60f81c610ea99190612bb9565b610eb39190612763565b600760000160016101000a81548160ff021916908360ff16021790555060016045600354600260208110610eea57610ee9612705565b5b1a60f81b60f81c610efb9190612bb9565b610f059190612763565b600760000160026101000a81548160ff021916908360ff16021790555060016045600354600360208110610f3c57610f3b612705565b5b1a60f81b60f81c610f4d9190612bb9565b610f579190612763565b600760000160036101000a81548160ff021916908360ff16021790555060016045600354600460208110610f8e57610f8d612705565b5b1a60f81b60f81c610f9f9190612bb9565b610fa99190612763565b600760000160046101000a81548160ff021916908360ff1602179055506001601a600354600560208110610fe057610fdf612705565b5b1a60f81b60f81c610ff19190612bb9565b610ffb9190612763565b600760000160056101000a81548160ff021916908360ff1602179055506001600460156101000a81548160ff0219169083151502179055507facc51baa8f6b590bcb0532d3dce8aeda0c37902ca2e5a5080c800c48608970bc60076040516110639190612d8c565b60405180910390a1565b3373ffffffffffffffffffffffffffffffffffffffff16600460009054906101000a900473ffffffffffffffffffffffffffffffffffffffff1673ffffffffffffffffffffffffffffffffffffffff16146110fd576040517f08c379a00000000000000000000000000000000000000000000000000000000081526004016110f4906125c1565b60405180910390fd5b600460149054906101000a900460ff166112755760005b6001805490508110156112735760005b6000806001848154811061113b5761113a612705565b5b9060005260206000200160009054906101000a900473ffffffffffffffffffffffffffffffffffffffff1673ffffffffffffffffffffffffffffffffffffffff1673ffffffffffffffffffffffffffffffffffffffff1681526020019081526020016000208054905081101561126157600182815481106111bf576111be612705565b5b9060005260206000200160009054906101000a900473ffffffffffffffffffffffffffffffffffffffff1673ffffffffffffffffffffffffffffffffffffffff166108fc7f00000000000000000000000000000000000000000000000000000000000000009081150290604051600060405180830381858888f1935050505015801561124f573d6000803e3d6000fd5b508061125a906129ed565b9050611124565b508061126c906129ed565b9050611114565b505b7f000000000000000000000000000000000000000000000000000000000000000073ffffffffffffffffffffffffffffffffffffffff16ff5b6112bc868686868686611f0d565b6112fb576040517f08c379a00000000000000000000000000000000000000000000000000000000081526004016112f290612e19565b60405180910390fd5b7f0000000000000000000000000000000000000000000000000000000000000000341461135d576040517f08c379a000000000000000000000000000000000000000000000000000000000815260040161135490612eab565b60405180910390fd5b611365611f00565b6113a4576040517f08c379a000000000000000000000000000000000000000000000000000000000815260040161139b90612f3d565b60405180910390fd5b60006040518060c001604052808860ff1681526020018760ff1681526020018660ff1681526020018560ff1681526020018460ff1681526020018360ff1681525090506000803373ffffffffffffffffffffffffffffffffffffffff1673ffffffffffffffffffffffffffffffffffffffff168152602001908152602001600020819080600181540180825580915050600190039060005260206000200160009091909190915060008201518160000160006101000a81548160ff021916908360ff16021790555060208201518160000160016101000a81548160ff021916908360ff16021790555060408201518160000160026101000a81548160ff021916908360ff16021790555060608201518160000160036101000a81548160ff021916908360ff16021790555060808201518160000160046101000a81548160ff021916908360ff16021790555060a08201518160000160056101000a81548160ff021916908360ff160217905550505060016000803373ffffffffffffffffffffffffffffffffffffffff1673ffffffffffffffffffffffffffffffffffffffff16815260200190815260200160002080549050036115c0576001339080600181540180825580915050600190039060005260206000200160009091909190916101000a81548173ffffffffffffffffffffffffffffffffffffffff021916908373ffffffffffffffffffffffffffffffffffffffff1602179055505b7fdda7c3cbe97ca96d71f2d53bcc3d55b6bef92eb923f59bf61c883e76730b6f7733826040516115f1929190612fd8565b60405180910390a150505050505050565b3373ffffffffffffffffffffffffffffffffffffffff16600460009054906101000a900473ffffffffffffffffffffffffffffffffffffffff1673ffffffffffffffffffffffffffffffffffffffff1614611692576040517f08c379a0000000000000000000000000000000000000000000000000000000008152600401611689906125c1565b60405180910390fd5b600460159054906101000a900460ff166116e1576040517f08c379a00000000000000000000000000000000000000000000000000000000081526004016116d890613073565b60405180910390fd5b600460149054906101000a900460ff16611730576040517f08c379a000000000000000000000000000000000000000000000000000000000815260040161172790613105565b60405180910390fd5b6001600061173e91906120b4565b6007600080820160006101000a81549060ff02191690556000820160016101000a81549060ff02191690556000820160026101000a81549060ff02191690556000820160036101000a81549060ff02191690556000820160046101000a81549060ff02191690556000820160056101000a81549060ff021916905550506000600460146101000a81548160ff0219169083151502179055506000600460156101000a81548160ff021916908315150217905550600254436117ff9190613125565b6006819055507fae4cf40c31a833f14b2aee71da8cb55d5fd1944a9ed5b7696022328921f6e317600654604051611836919061219a565b60405180910390a1565b60078060000160009054906101000a900460ff16908060000160019054906101000a900460ff16908060000160029054906101000a900460ff16908060000160039054906101000a900460ff16908060000160049054906101000a900460ff16908060000160059054906101000a900460ff16905086565b3373ffffffffffffffffffffffffffffffffffffffff16600460009054906101000a900473ffffffffffffffffffffffffffffffffffffffff1673ffffffffffffffffffffffffffffffffffffffff1614611948576040517f08c379a000000000000000000000000000000000000000000000000000000000815260040161193f906125c1565b60405180910390fd5b6000600190505b6009811015611a7a5760006005600083815260200190815260200160002080549050118015611a545750611a53600860009054906101000a900473ffffffffffffffffffffffffffffffffffffffff1673ffffffffffffffffffffffffffffffffffffffff1663c87b56dd600560008581526020019081526020016000206000815481106119e0576119df612705565b5b90600052602060002001546040518263ffffffff1660e01b8152600401611a07919061219a565b600060405180830381865afa158015611a24573d6000803e3d6000fd5b505050506040513d6000823e3d601f19601f82011682018060405250810190611a4d919061283d565b83611fd3565b5b15611a6957611a638282611d54565b50611b68565b80611a73906129ed565b905061194f565b506000600860009054906101000a900473ffffffffffffffffffffffffffffffffffffffff1673ffffffffffffffffffffffffffffffffffffffff1663eacabe1430846040518363ffffffff1660e01b8152600401611ada92919061317b565b6020604051808303816000875af1158015611af9573d6000803e3d6000fd5b505050506040513d601f19601f82011682018060405250810190611b1d91906131d7565b90506000611b2a82611fee565b90507f5f7666687319b40936f33c188908d86aea154abd3f4127b4fa0a3f04f303c7da8282604051611b5d929190613204565b60405180910390a150505b50565b6000600460009054906101000a900473ffffffffffffffffffffffffffffffffffffffff16905090565b600860009054906101000a900473ffffffffffffffffffffffffffffffffffffffff1681565b6000600760000160009054906101000a900460ff1660ff168260ff161480611bfa5750600760000160019054906101000a900460ff1660ff168260ff16145b80611c1c5750600760000160029054906101000a900460ff1660ff168260ff16145b80611c3e5750600760000160039054906101000a900460ff1660ff168260ff16145b80611c605750600760000160049054906101000a900460ff1660ff168260ff16145b80611c825750600760000160059054906101000a900460ff1660ff168260ff16145b9050919050565b600060058360ff1603611cae578115611ca55760019050611d4e565b60029050611d4e565b60048360ff1603611cd1578115611cc85760039050611d4e565b60049050611d4e565b60038360ff1603611cf4578115611ceb5760049050611d4e565b60059050611d4e565b60028360ff1603611d17578115611d0e5760059050611d4e565b60069050611d4e565b60018360ff1603611d3a578115611d315760069050611d4e565b60079050611d4e565b8115611d495760089050611d4e565b600090505b92915050565b3373ffffffffffffffffffffffffffffffffffffffff16600460009054906101000a900473ffffffffffffffffffffffffffffffffffffffff1673ffffffffffffffffffffffffffffffffffffffff1614611de4576040517f08c379a0000000000000000000000000000000000000000000000000000000008152600401611ddb906125c1565b60405180910390fd5b6000600860009054906101000a900473ffffffffffffffffffffffffffffffffffffffff1673ffffffffffffffffffffffffffffffffffffffff1663eacabe1430856040518363ffffffff1660e01b8152600401611e4392919061317b565b6020604051808303816000875af1158015611e62573d6000803e3d6000fd5b505050506040513d601f19601f82011682018060405250810190611e8691906131d7565b9050600560008381526020019081526020016000208190806001815401808255809150506001900390600052602060002001600090919091909150557f5f7666687319b40936f33c188908d86aea154abd3f4127b4fa0a3f04f303c7da8183604051611ef3929190613204565b60405180910390a1505050565b6000600654431115905090565b600060018760ff1610158015611f27575060458760ff1611155b8015611f47575060018660ff1610158015611f46575060458660ff1611155b5b8015611f67575060018560ff1610158015611f66575060458560ff1611155b5b8015611f87575060018460ff1610158015611f86575060458460ff1611155b5b8015611fa7575060018360ff1610158015611fa6575060458360ff1611155b5b8015611fc7575060018260ff1610158015611fc65750601a8260ff1611155b5b90509695505050505050565b60008180519060200120838051906020012014905092915050565b6000600143611ffd9190612886565b40600354604051602001612012929190612b5e565b6040516020818303038152906040528051906020012060038190555060006001600860035460001c612044919061322d565b61204e9190613125565b90506005600082815260200190815260200160002083908060018154018082558091505060019003906000526020600020016000909190919091505580915050919050565b50805460008255906000526020600020908101906120b191906120d5565b50565b50805460008255906000526020600020908101906120d29190612164565b50565b5b8082111561216057600080820160006101000a81549060ff02191690556000820160016101000a81549060ff02191690556000820160026101000a81549060ff02191690556000820160036101000a81549060ff02191690556000820160046101000a81549060ff02191690556000820160056101000a81549060ff0219169055506001016120d6565b5090565b5b8082111561217d576000816000905550600101612165565b5090565b6000819050919050565b61219481612181565b82525050565b60006020820190506121af600083018461218b565b92915050565b6000604051905090565b600080fd5b600080fd5b600060ff82169050919050565b6121df816121c9565b81146121ea57600080fd5b50565b6000813590506121fc816121d6565b92915050565b60008060008060008060c0878903121561221f5761221e6121bf565b5b600061222d89828a016121ed565b965050602061223e89828a016121ed565b955050604061224f89828a016121ed565b945050606061226089828a016121ed565b935050608061227189828a016121ed565b92505060a061228289828a016121ed565b9150509295509295509295565b612298816121c9565b82525050565b600060c0820190506122b3600083018961228f565b6122c0602083018861228f565b6122cd604083018761228f565b6122da606083018661228f565b6122e7608083018561228f565b6122f460a083018461228f565b979650505050505050565b600080fd5b600080fd5b6000601f19601f8301169050919050565b7f4e487b7100000000000000000000000000000000000000000000000000000000600052604160045260246000fd5b61235282612309565b810181811067ffffffffffffffff821117156123715761237061231a565b5b80604052505050565b60006123846121b5565b90506123908282612349565b919050565b600067ffffffffffffffff8211156123b0576123af61231a565b5b6123b982612309565b9050602081019050919050565b82818337600083830152505050565b60006123e86123e384612395565b61237a565b90508281526020810184848401111561240457612403612304565b5b61240f8482856123c6565b509392505050565b600082601f83011261242c5761242b6122ff565b5b813561243c8482602086016123d5565b91505092915050565b60006020828403121561245b5761245a6121bf565b5b600082013567ffffffffffffffff811115612479576124786121c4565b5b61248584828501612417565b91505092915050565b600073ffffffffffffffffffffffffffffffffffffffff82169050919050565b60006124b98261248e565b9050919050565b6124c9816124ae565b82525050565b60006020820190506124e460008301846124c0565b92915050565b6000819050919050565b600061250f61250a6125058461248e565b6124ea565b61248e565b9050919050565b6000612521826124f4565b9050919050565b600061253382612516565b9050919050565b61254381612528565b82525050565b600060208201905061255e600083018461253a565b92915050565b600082825260208201905092915050565b7f43616c6c6572206973206e6f7420746865206f70657261746f72000000000000600082015250565b60006125ab601a83612564565b91506125b682612575565b602082019050919050565b600060208201905081810360008301526125da8161259e565b9050919050565b7f5072697a6573206861766520616c7265616479206265656e2061737369676e6560008201527f6420666f72207468697320726f756e6400000000000000000000000000000000602082015250565b600061263d603083612564565b9150612648826125e1565b604082019050919050565b6000602082019050818103600083015261266c81612630565b9050919050565b7f596f75206861766520746f2064726177207468652077696e6e696e67206e756d60008201527f6265727320666972737400000000000000000000000000000000000000000000602082015250565b60006126cf602a83612564565b91506126da82612673565b604082019050919050565b600060208201905081810360008301526126fe816126c2565b9050919050565b7f4e487b7100000000000000000000000000000000000000000000000000000000600052603260045260246000fd5b7f4e487b7100000000000000000000000000000000000000000000000000000000600052601160045260246000fd5b600061276e826121c9565b9150612779836121c9565b92508260ff0382111561278f5761278e612734565b5b828201905092915050565b60005b838110156127b857808201518184015260208101905061279d565b838111156127c7576000848401525b50505050565b60006127e06127db84612395565b61237a565b9050828152602081018484840111156127fc576127fb612304565b5b61280784828561279a565b509392505050565b600082601f830112612824576128236122ff565b5b81516128348482602086016127cd565b91505092915050565b600060208284031215612853576128526121bf565b5b600082015167ffffffffffffffff811115612871576128706121c4565b5b61287d8482850161280f565b91505092915050565b600061289182612181565b915061289c83612181565b9250828210156128af576128ae612734565b5b828203905092915050565b60006128c582612516565b9050919050565b6128d5816128ba565b82525050565b60006060820190506128f060008301866124c0565b6128fd60208301856128cc565b61290a604083018461218b565b949350505050565b600081519050919050565b600061292882612912565b6129328185612564565b935061294281856020860161279a565b61294b81612309565b840191505092915050565b600060a08201905061296b600083018861218b565b818103602083015261297d818761291d565b90508181036040830152612991818661291d565b905081810360608301526129a5818561291d565b90506129b460808301846128cc565b9695505050505050565b7f4e487b7100000000000000000000000000000000000000000000000000000000600052603160045260246000fd5b60006129f882612181565b91507fffffffffffffffffffffffffffffffffffffffffffffffffffffffffffffffff8203612a2a57612a29612734565b5b600182019050919050565b7f54686520726f756e642068617320746f2062652066696e69736865642062656660008201527f6f72652064726177696e6720746865206e756d62657273000000000000000000602082015250565b6000612a91603783612564565b9150612a9c82612a35565b604082019050919050565b60006020820190508181036000830152612ac081612a84565b9050919050565b7f4e756d62657273206861766520616c7265616479206265656e20647261776e00600082015250565b6000612afd601f83612564565b9150612b0882612ac7565b602082019050919050565b60006020820190508181036000830152612b2c81612af0565b9050919050565b6000819050919050565b6000819050919050565b612b58612b5382612b33565b612b3d565b82525050565b6000612b6a8285612b47565b602082019150612b7a8284612b47565b6020820191508190509392505050565b7f4e487b7100000000000000000000000000000000000000000000000000000000600052601260045260246000fd5b6000612bc4826121c9565b9150612bcf836121c9565b925082612bdf57612bde612b8a565b5b828206905092915050565b60008160001c9050919050565b600060ff82169050919050565b6000612c17612c1283612bea565b612bf7565b9050919050565b612c27816121c9565b82525050565b60008160081c9050919050565b6000612c4d612c4883612c2d565b612bf7565b9050919050565b60008160101c9050919050565b6000612c74612c6f83612c54565b612bf7565b9050919050565b60008160181c9050919050565b6000612c9b612c9683612c7b565b612bf7565b9050919050565b60008160201c9050919050565b6000612cc2612cbd83612ca2565b612bf7565b9050919050565b60008160281c9050919050565b6000612ce9612ce483612cc9565b612bf7565b9050919050565b60c082016000808301549050612d0581612c04565b612d126000860182612c1e565b50612d1c81612c3a565b612d296020860182612c1e565b50612d3381612c61565b612d406040860182612c1e565b50612d4a81612c88565b612d576060860182612c1e565b50612d6181612caf565b612d6e6080860182612c1e565b50612d7881612cd6565b612d8560a0860182612c1e565b5050505050565b600060c082019050612da16000830184612cf0565b92915050565b7f5469636b65747320617265206e6f7420636f6d706c69616e7420746f2074686560008201527f2072756c65730000000000000000000000000000000000000000000000000000602082015250565b6000612e03602683612564565b9150612e0e82612da7565b604082019050919050565b60006020820190508181036000830152612e3281612df6565b9050919050565b7f5468652073656e742076616c75652068617320746f20626520657175616c207460008201527f6f20746865207469636b65742070726963650000000000000000000000000000602082015250565b6000612e95603283612564565b9150612ea082612e39565b604082019050919050565b60006020820190508181036000830152612ec481612e88565b9050919050565b7f43616e6e6f7420627579207469636b657473207768696c65207468657265206960008201527f73206e6f2061637469766520726f756e64000000000000000000000000000000602082015250565b6000612f27603183612564565b9150612f3282612ecb565b604082019050919050565b60006020820190508181036000830152612f5681612f1a565b9050919050565b60c082016000820151612f736000850182612c1e565b506020820151612f866020850182612c1e565b506040820151612f996040850182612c1e565b506060820151612fac6060850182612c1e565b506080820151612fbf6080850182612c1e565b5060a0820151612fd260a0850182612c1e565b50505050565b600060e082019050612fed60008301856124c0565b612ffa6020830184612f5d565b9392505050565b7f4e756d62657273207374696c6c206861766520746f20626520647261776e206660008201527f6f722063757272656e7420726f756e6400000000000000000000000000000000602082015250565b600061305d603083612564565b915061306882613001565b604082019050919050565b6000602082019050818103600083015261308c81613050565b9050919050565b7f596f75206861766520746f2061737369676e20746865207072697a6573206f6660008201527f207468652070726576696f757320726f756e6420666972737400000000000000602082015250565b60006130ef603983612564565b91506130fa82613093565b604082019050919050565b6000602082019050818103600083015261311e816130e2565b9050919050565b600061313082612181565b915061313b83612181565b9250827fffffffffffffffffffffffffffffffffffffffffffffffffffffffffffffffff038211156131705761316f612734565b5b828201905092915050565b600060408201905061319060008301856124c0565b81810360208301526131a2818461291d565b90509392505050565b6131b481612181565b81146131bf57600080fd5b50565b6000815190506131d1816131ab565b92915050565b6000602082840312156131ed576131ec6121bf565b5b60006131fb848285016131c2565b91505092915050565b6000604082019050613219600083018561218b565b613226602083018461218b565b9392505050565b600061323882612181565b915061324383612181565b92508261325357613252612b8a565b5b82820690509291505056fea26469706673582212208a69b106f58b47dd8e1e2d353c627aadc267c86d2aba15926efc9dab2732bcb964736f6c634300080e0033",
  "immutableReferences": {
    "1103": [
      {
        "length": 32,
        "start": 3125
      },
      {
        "length": 32,
        "start": 4727
      }
    ],
    "1114": [
      {
        "length": 32,
        "start": 3230
      },
      {
        "length": 32,
        "start": 4613
      },
      {
        "length": 32,
        "start": 4861
      }
    ]
  },
  "source": "// SPDX-License-Identifier: GPL-3.0\r\npragma solidity ^0.8.7;\r\n\r\nimport \"./TRYNFT.sol\";\r\n\r\ncontract TRYlottery {\r\n    // Struct representing a ticket (6 numbers)\r\n    struct ticket {\r\n        uint8 first;\r\n        uint8 second;\r\n        uint8 third;\r\n        uint8 fourth;\r\n        uint8 fifth;\r\n        uint8 powerball;\r\n    }\r\n\r\n    // List of tickets bought for each user\r\n    mapping(address => ticket[]) private _playingTickets;\r\n\r\n    // List of players\r\n    address payable[] private _players;\r\n\r\n    // M parameter used to represent round's duration in blocks\r\n    uint256 private _roundDuration;\r\n\r\n    // Previous random generation hash used for the following random generation\r\n    bytes32 private _prevRand;\r\n\r\n    // Operator's address\r\n    address private _operator;\r\n\r\n    // Address where to send the accumulated value after each round\r\n    address payable private immutable _transferAddress;\r\n\r\n    // True if the prizes have been assigned for the current round\r\n    bool private _prizesAssigned;\r\n\r\n    // True if the numbers have been drawn for the current round\r\n    bool private _areNumbersDrawn;\r\n\r\n    // Mapping from class (1..8) to array of token ids (1..)\r\n    mapping(uint256 => uint256[]) private _collectibleClasses;\r\n\r\n    // Ticket's price in gwei (10**9 wei)\r\n    uint256 public immutable ticketPrice;\r\n\r\n    // Last block of the round (after this the round will be considered closed)\r\n    uint256 public currentRoundClosing;\r\n\r\n    // Ticket representing the randomly drawn numbers for the current round\r\n    ticket public winningTicket;\r\n\r\n    // NFT's contract instance\r\n    TRYNFT public lotteryNFT;\r\n\r\n    event LotteryOpened(address atAddress, uint256 atBlock);\r\n    event NewRoundStarted(uint256 roundClosesAtBlock);\r\n    event TicketBought(address buyer, ticket userTicket);\r\n    event NumbersDrawn(ticket winningNumbers);\r\n    event WinningTicket(\r\n        uint256 ticketClass,\r\n        string NFTName,\r\n        string NFTSymbol,\r\n        string tokenURI,\r\n        address winner\r\n    );\r\n    event TokenMinted(uint256 tokenId, uint256 classNum);\r\n    event LotteryClosed(address contractAddress);\r\n\r\n    modifier onlyOperator() {\r\n        require(_operator == msg.sender, \"Caller is not the operator\");\r\n        _;\r\n    }\r\n\r\n    constructor(\r\n        uint256 blocksNum_,\r\n        uint256 _ticketPrice,\r\n        address payable transferAddress_,\r\n        address _NFTAddress\r\n    ) {\r\n        require(_ticketPrice > 0, \"Ticket's price has to be greater than 0\");\r\n        require(blocksNum_ > 0, \"The length of the round has to be >= 1\");\r\n\r\n        _roundDuration = blocksNum_;\r\n        ticketPrice = _ticketPrice * 1 gwei;\r\n        _operator = msg.sender;\r\n        _transferAddress = transferAddress_;\r\n        _prizesAssigned = true;\r\n        _areNumbersDrawn = true;\r\n        lotteryNFT = TRYNFT(_NFTAddress);\r\n\r\n        emit LotteryOpened(address(this), block.number);\r\n    }\r\n\r\n    function startNewRound() public onlyOperator {\r\n        /* Check if round is finished */\r\n        require(\r\n            _areNumbersDrawn,\r\n            \"Numbers still have to be drawn for current round\"\r\n        );\r\n        require(\r\n            _prizesAssigned,\r\n            \"You have to assign the prizes of the previous round first\"\r\n        );\r\n\r\n        delete _players; // Resetting the 'players' array\r\n        delete winningTicket; // Resetting the winning ticket\r\n        _prizesAssigned = false;\r\n        _areNumbersDrawn = false;\r\n        currentRoundClosing = block.number + _roundDuration;\r\n\r\n        emit NewRoundStarted(currentRoundClosing);\r\n    }\r\n\r\n    function buy(\r\n        uint8 num1,\r\n        uint8 num2,\r\n        uint8 num3,\r\n        uint8 num4,\r\n        uint8 num5,\r\n        uint8 num6\r\n    ) external payable {\r\n        require(\r\n            _areTicketsCompliant(num1, num2, num3, num4, num5, num6),\r\n            \"Tickets are not compliant to the rules\"\r\n        );\r\n        require(\r\n            msg.value == ticketPrice,\r\n            \"The sent value has to be equal to the ticket price\"\r\n        );\r\n        require(\r\n            _isRoundActive(),\r\n            \"Cannot buy tickets while there is no active round\"\r\n        );\r\n\r\n        ticket memory new_ticket = ticket(num1, num2, num3, num4, num5, num6);\r\n        _playingTickets[msg.sender].push(new_ticket);\r\n        // Add to the players array only if it's the first ticket bought by this player\r\n        if (_playingTickets[msg.sender].length == 1)\r\n            _players.push(payable(msg.sender));\r\n\r\n        emit TicketBought(msg.sender, new_ticket);\r\n    }\r\n\r\n    function drawNumbers() external onlyOperator {\r\n        require(\r\n            !_isRoundActive(),\r\n            \"The round has to be finished before drawing the numbers\"\r\n        );\r\n        require(!_areNumbersDrawn, \"Numbers have already been drawn\");\r\n\r\n        /* Random generation using the block hash of the previous block combined \r\n        with the previously generated value, if any, in order to differentiate the result between\r\n        consecutive uses */\r\n        _prevRand = keccak256(\r\n            abi.encodePacked(blockhash(block.number - 1), _prevRand)\r\n        );\r\n\r\n        // Acquire winning numbers from portions of the randomly generated value\r\n        winningTicket.first = (uint8(_prevRand[0]) % 69) + 1;\r\n        winningTicket.second = (uint8(_prevRand[1]) % 69) + 1;\r\n        winningTicket.third = (uint8(_prevRand[2]) % 69) + 1;\r\n        winningTicket.fourth = (uint8(_prevRand[3]) % 69) + 1;\r\n        winningTicket.fifth = (uint8(_prevRand[4]) % 69) + 1;\r\n        winningTicket.powerball = (uint8(_prevRand[5]) % 26) + 1;\r\n\r\n        _areNumbersDrawn = true;\r\n\r\n        emit NumbersDrawn(winningTicket);\r\n    }\r\n\r\n    function givePrizes() external onlyOperator {\r\n        require(\r\n            !_prizesAssigned,\r\n            \"Prizes have already been assigned for this round\"\r\n        );\r\n        require(_areNumbersDrawn, \"You have to draw the winning numbers first\");\r\n\r\n        for (uint256 i; i < _players.length; ++i) {\r\n            for (\r\n                uint256 tktNum;\r\n                tktNum < _playingTickets[_players[i]].length;\r\n                ++tktNum\r\n            ) {\r\n                uint8 gottenNumbers = 0;\r\n                bool gotPowerball = false;\r\n                ticket memory playerTkt = _playingTickets[_players[i]][tktNum];\r\n                gottenNumbers += _checkIfNumberWinning(playerTkt.first) ? 1 : 0;\r\n                gottenNumbers += _checkIfNumberWinning(playerTkt.second)\r\n                    ? 1\r\n                    : 0;\r\n                gottenNumbers += _checkIfNumberWinning(playerTkt.third) ? 1 : 0;\r\n                gottenNumbers += _checkIfNumberWinning(playerTkt.fourth)\r\n                    ? 1\r\n                    : 0;\r\n                gottenNumbers += _checkIfNumberWinning(playerTkt.fifth) ? 1 : 0;\r\n                gotPowerball = _checkIfNumberWinning(playerTkt.powerball);\r\n                uint256 classNumber = _determineClassNumber(\r\n                    gottenNumbers,\r\n                    gotPowerball\r\n                );\r\n                if (classNumber == 0)\r\n                    // if 0 guesses skip\r\n                    continue;\r\n\r\n                uint256 currClassLen = _collectibleClasses[classNumber].length;\r\n                /* Assuming that initially it is not mandatory to have at least one token per class, \r\n                thus, if the class is empty, nothing can be assigned */\r\n                if (currClassLen == 0) continue;\r\n\r\n                string memory currClassURI = lotteryNFT.tokenURI(\r\n                    _collectibleClasses[classNumber][0]\r\n                );\r\n\r\n                // If there is only one collectible inside a class, then another one will be created\r\n                bool singleInClass;\r\n                if (currClassLen == 1) singleInClass = true;\r\n\r\n                // Assigning class tokens from the tail in order to be able to use 'pop()' on the array\r\n                uint256 tokenId = _collectibleClasses[classNumber][\r\n                    currClassLen - 1\r\n                ];\r\n\r\n                lotteryNFT.transferFrom(address(this), _players[i], tokenId);\r\n\r\n                emit WinningTicket(\r\n                    classNumber,\r\n                    lotteryNFT.name(),\r\n                    lotteryNFT.symbol(),\r\n                    lotteryNFT.tokenURI(tokenId),\r\n                    _players[i]\r\n                );\r\n\r\n                // Popping avoids array shifts and array holes\r\n                _collectibleClasses[classNumber].pop();\r\n                // Creation of another token to avoid having an empty class\r\n                if (singleInClass) _mintForClass(currClassURI, classNumber);\r\n            }\r\n            delete _playingTickets[_players[i]];\r\n        }\r\n\r\n        _prizesAssigned = true;\r\n        delete winningTicket;\r\n        // The operator's provided address receives the whole value when users receive their winnings\r\n        _transferAddress.transfer(address(this).balance);\r\n    }\r\n\r\n    /* Check if a token with the same URI has already been assigned to a class and, \r\n    in that case, mint a new token and assign it to the same class, otherwise assign \r\n    the token to a new class */\r\n    function mint(string memory tokenURI) external onlyOperator {\r\n        for (uint256 cnum = 1; cnum < 9; ++cnum) {\r\n            if (\r\n                _collectibleClasses[cnum].length > 0 &&\r\n                _compareStrings(\r\n                    lotteryNFT.tokenURI(_collectibleClasses[cnum][0]),\r\n                    tokenURI\r\n                )\r\n            ) {\r\n                _mintForClass(tokenURI, cnum);\r\n                return;\r\n            }\r\n        }\r\n\r\n        // The initial token ownership belongs to the contract\r\n        uint256 tokenId = lotteryNFT.mintNFT(address(this), tokenURI);\r\n        // It is possible for a token to be assigned to an already populated class\r\n        uint256 classNum = _assignClassToToken(tokenId);\r\n\r\n        emit TokenMinted(tokenId, classNum);\r\n    }\r\n\r\n    function closeLottery() external onlyOperator {\r\n        if (!_prizesAssigned) {\r\n            // Last step of the game\r\n            for (uint256 i; i < _players.length; ++i) {\r\n                for (\r\n                    uint256 ticketNum;\r\n                    ticketNum < _playingTickets[_players[i]].length;\r\n                    ++ticketNum\r\n                ) _players[i].transfer(ticketPrice);\r\n            }\r\n        }\r\n\r\n        /* 'selfdestruct' requires a parameter to send the remaining value to;\r\n        thus the address provided by the operator has been chosen even if, at this point,\r\n        the value stored inside this contract should be zero */\r\n        selfdestruct(payable(_transferAddress));\r\n\r\n        emit LotteryClosed(_operator);\r\n    }\r\n\r\n    function getOperator() public view returns (address) {\r\n        return _operator;\r\n    }\r\n\r\n    function _mintForClass(string memory tokenURI, uint256 classNum)\r\n        private\r\n        onlyOperator\r\n    {\r\n        // The initial token ownership belongs to the contract\r\n        uint256 tokenId = lotteryNFT.mintNFT(address(this), tokenURI);\r\n        _collectibleClasses[classNum].push(tokenId);\r\n\r\n        emit TokenMinted(tokenId, classNum);\r\n    }\r\n\r\n    // It is assumed that not all tokens have to be initially assigned to a class\r\n    function _assignClassToToken(uint256 tokenId) private returns (uint256) {\r\n        // Random choice\r\n        _prevRand = keccak256(\r\n            abi.encodePacked(blockhash(block.number - 1), _prevRand)\r\n        );\r\n\r\n        uint256 classNum = (uint256(_prevRand) % 8) + 1; // random number modulo number of classes\r\n        _collectibleClasses[classNum].push(tokenId);\r\n\r\n        return classNum;\r\n    }\r\n\r\n    function _checkIfNumberWinning(uint8 number) private view returns (bool) {\r\n        return\r\n            number == winningTicket.first ||\r\n            number == winningTicket.second ||\r\n            number == winningTicket.third ||\r\n            number == winningTicket.fourth ||\r\n            number == winningTicket.fifth ||\r\n            number == winningTicket.powerball;\r\n    }\r\n\r\n    function _determineClassNumber(uint8 gottenNumbers, bool gotPowerball)\r\n        private\r\n        pure\r\n        returns (uint256)\r\n    {\r\n        if (gottenNumbers == 5) {\r\n            if (gotPowerball) return 1;\r\n            else return 2;\r\n        } else if (gottenNumbers == 4) {\r\n            if (gotPowerball) return 3;\r\n            else return 4;\r\n        } else if (gottenNumbers == 3) {\r\n            if (gotPowerball) return 4;\r\n            else return 5;\r\n        } else if (gottenNumbers == 2) {\r\n            if (gotPowerball) return 5;\r\n            else return 6;\r\n        } else if (gottenNumbers == 1) {\r\n            if (gotPowerball) return 6;\r\n            else return 7;\r\n        } else if (gotPowerball) return 8;\r\n        return 0;\r\n    }\r\n\r\n    function _areTicketsCompliant(\r\n        uint8 num1,\r\n        uint8 num2,\r\n        uint8 num3,\r\n        uint8 num4,\r\n        uint8 num5,\r\n        uint8 num6\r\n    ) private pure returns (bool) {\r\n        return\r\n            (num1 >= 1 && num1 <= 69) &&\r\n            (num2 >= 1 && num2 <= 69) &&\r\n            (num3 >= 1 && num3 <= 69) &&\r\n            (num4 >= 1 && num4 <= 69) &&\r\n            (num5 >= 1 && num5 <= 69) &&\r\n            (num6 >= 1 && num6 <= 26);\r\n    }\r\n\r\n    function _isRoundActive() private view returns (bool) {\r\n        return block.number <= currentRoundClosing;\r\n    }\r\n\r\n    function _compareStrings(string memory s1, string memory s2)\r\n        private\r\n        pure\r\n        returns (bool)\r\n    {\r\n        return keccak256(bytes(s1)) == keccak256(bytes(s2));\r\n    }\r\n\r\n    /************************** Functions used for unit testing ******************************/\r\n    /*\r\n    function getTokensAtClass(uint256 class) public view returns (uint256[] memory) {\r\n        return _collectibleClasses[class];\r\n    }\r\n\r\n    function setWinningTicket(\r\n        uint8 num1, \r\n        uint8 num2, \r\n        uint8 num3, \r\n        uint8 num4, \r\n        uint8 num5, \r\n        uint8 powerball\r\n    ) public {\r\n        winningTicket = ticket(num1, num2, num3, num4, num5, powerball);\r\n        _areNumbersDrawn = true;\r\n    }\r\n\r\n    function mintForClass(string memory tokenURI, uint256 classNum) public {\r\n        _mintForClass(tokenURI, classNum);\r\n    }\r\n    */\r\n}\r\n",
  "sourcePath": "C:\\Users\\39340\\Desktop\\OLD\\contracts\\TRYlottery.sol",
  "compiler": {
    "name": "solc",
    "version": "0.8.14+commit.80d49f37.Emscripten.clang"
  },
  "schemaVersion": "3.4.7",
  "updatedAt": "2022-06-13T16:59:00.151Z",
  "devdoc": {
    "kind": "dev",
    "methods": {},
    "version": 1
  },
  "userdoc": {
    "kind": "user",
    "methods": {},
    "version": 1
  }
}