{
  "contractName": "TRYNFT",
  "abi": [
    {
      "inputs": [],
      "stateMutability": "nonpayable",
      "type": "constructor"
    },
    {
      "anonymous": false,
      "inputs": [
        {
          "indexed": true,
          "internalType": "address",
          "name": "_owner",
          "type": "address"
        },
        {
          "indexed": true,
          "internalType": "address",
          "name": "_approved",
          "type": "address"
        },
        {
          "indexed": true,
          "internalType": "uint256",
          "name": "_tokenId",
          "type": "uint256"
        }
      ],
      "name": "Approval",
      "type": "event"
    },
    {
      "anonymous": false,
      "inputs": [
        {
          "indexed": true,
          "internalType": "address",
          "name": "_owner",
          "type": "address"
        },
        {
          "indexed": true,
          "internalType": "address",
          "name": "_operator",
          "type": "address"
        },
        {
          "indexed": false,
          "internalType": "bool",
          "name": "_approved",
          "type": "bool"
        }
      ],
      "name": "ApprovalForAll",
      "type": "event"
    },
    {
      "anonymous": false,
      "inputs": [
        {
          "indexed": true,
          "internalType": "address",
          "name": "_from",
          "type": "address"
        },
        {
          "indexed": true,
          "internalType": "address",
          "name": "_to",
          "type": "address"
        },
        {
          "indexed": true,
          "internalType": "uint256",
          "name": "_tokenId",
          "type": "uint256"
        }
      ],
      "name": "Transfer",
      "type": "event"
    },
    {
      "inputs": [
        {
          "internalType": "address",
          "name": "to",
          "type": "address"
        },
        {
          "internalType": "uint256",
          "name": "tokenId",
          "type": "uint256"
        }
      ],
      "name": "approve",
      "outputs": [],
      "stateMutability": "nonpayable",
      "type": "function"
    },
    {
      "inputs": [
        {
          "internalType": "address",
          "name": "owner",
          "type": "address"
        }
      ],
      "name": "balanceOf",
      "outputs": [
        {
          "internalType": "uint256",
          "name": "",
          "type": "uint256"
        }
      ],
      "stateMutability": "view",
      "type": "function"
    },
    {
      "inputs": [
        {
          "internalType": "uint256",
          "name": "tokenId",
          "type": "uint256"
        }
      ],
      "name": "getApproved",
      "outputs": [
        {
          "internalType": "address",
          "name": "",
          "type": "address"
        }
      ],
      "stateMutability": "view",
      "type": "function"
    },
    {
      "inputs": [
        {
          "internalType": "address",
          "name": "owner",
          "type": "address"
        },
        {
          "internalType": "address",
          "name": "operator",
          "type": "address"
        }
      ],
      "name": "isApprovedForAll",
      "outputs": [
        {
          "internalType": "bool",
          "name": "",
          "type": "bool"
        }
      ],
      "stateMutability": "view",
      "type": "function"
    },
    {
      "inputs": [],
      "name": "name",
      "outputs": [
        {
          "internalType": "string",
          "name": "",
          "type": "string"
        }
      ],
      "stateMutability": "view",
      "type": "function"
    },
    {
      "inputs": [
        {
          "internalType": "uint256",
          "name": "tokenId",
          "type": "uint256"
        }
      ],
      "name": "ownerOf",
      "outputs": [
        {
          "internalType": "address",
          "name": "",
          "type": "address"
        }
      ],
      "stateMutability": "view",
      "type": "function"
    },
    {
      "inputs": [
        {
          "internalType": "address",
          "name": "from",
          "type": "address"
        },
        {
          "internalType": "address",
          "name": "to",
          "type": "address"
        },
        {
          "internalType": "uint256",
          "name": "tokenId",
          "type": "uint256"
        }
      ],
      "name": "safeTransferFrom",
      "outputs": [],
      "stateMutability": "nonpayable",
      "type": "function"
    },
    {
      "inputs": [
        {
          "internalType": "address",
          "name": "from",
          "type": "address"
        },
        {
          "internalType": "address",
          "name": "to",
          "type": "address"
        },
        {
          "internalType": "uint256",
          "name": "tokenId",
          "type": "uint256"
        },
        {
          "internalType": "bytes",
          "name": "data",
          "type": "bytes"
        }
      ],
      "name": "safeTransferFrom",
      "outputs": [],
      "stateMutability": "nonpayable",
      "type": "function"
    },
    {
      "inputs": [
        {
          "internalType": "address",
          "name": "operator",
          "type": "address"
        },
        {
          "internalType": "bool",
          "name": "approved",
          "type": "bool"
        }
      ],
      "name": "setApprovalForAll",
      "outputs": [],
      "stateMutability": "nonpayable",
      "type": "function"
    },
    {
      "inputs": [
        {
          "internalType": "bytes4",
          "name": "interfaceId",
          "type": "bytes4"
        }
      ],
      "name": "supportsInterface",
      "outputs": [
        {
          "internalType": "bool",
          "name": "",
          "type": "bool"
        }
      ],
      "stateMutability": "view",
      "type": "function"
    },
    {
      "inputs": [],
      "name": "symbol",
      "outputs": [
        {
          "internalType": "string",
          "name": "",
          "type": "string"
        }
      ],
      "stateMutability": "view",
      "type": "function"
    },
    {
      "inputs": [
        {
          "internalType": "uint256",
          "name": "tokenId",
          "type": "uint256"
        }
      ],
      "name": "tokenURI",
      "outputs": [
        {
          "internalType": "string",
          "name": "",
          "type": "string"
        }
      ],
      "stateMutability": "view",
      "type": "function"
    },
    {
      "inputs": [
        {
          "internalType": "address",
          "name": "from",
          "type": "address"
        },
        {
          "internalType": "address",
          "name": "to",
          "type": "address"
        },
        {
          "internalType": "uint256",
          "name": "tokenId",
          "type": "uint256"
        }
      ],
      "name": "transferFrom",
      "outputs": [],
      "stateMutability": "nonpayable",
      "type": "function"
    },
    {
      "inputs": [],
      "name": "owner",
      "outputs": [
        {
          "internalType": "address",
          "name": "",
          "type": "address"
        }
      ],
      "stateMutability": "view",
      "type": "function"
    },
    {
      "inputs": [
        {
          "internalType": "address",
          "name": "recipient",
          "type": "address"
        },
        {
          "internalType": "string",
          "name": "tokenURI",
          "type": "string"
        }
      ],
      "name": "mintNFT",
      "outputs": [
        {
          "internalType": "uint256",
          "name": "",
          "type": "uint256"
        }
      ],
      "stateMutability": "nonpayable",
      "type": "function"
    },
    {
      "inputs": [
        {
          "internalType": "address",
          "name": "newOwner",
          "type": "address"
        }
      ],
      "name": "transferOwnership",
      "outputs": [],
      "stateMutability": "nonpayable",
      "type": "function"
    }
  ],
  "bytecode": "0x60806040523480156200001157600080fd5b506040518060400160405280600681526020017f5452594e465400000000000000000000000000000000000000000000000000008152506040518060400160405280600381526020017f5452590000000000000000000000000000000000000000000000000000000000815250816000908051906020019062000096929190620000f9565b508060019080519060200190620000af929190620000f9565b50505033600860006101000a81548173ffffffffffffffffffffffffffffffffffffffff021916908373ffffffffffffffffffffffffffffffffffffffff1602179055506200020d565b8280546200010790620001d8565b90600052602060002090601f0160209004810192826200012b576000855562000177565b82601f106200014657805160ff191683800117855562000177565b8280016001018555821562000177579182015b828111156200017657825182559160200191906001019062000159565b5b5090506200018691906200018a565b5090565b5b80821115620001a55760008160009055506001016200018b565b5090565b7f4e487b7100000000000000000000000000000000000000000000000000000000600052602260045260246000fd5b60006002820490506001821680620001f157607f821691505b602082108103620002075762000206620001a9565b5b50919050565b612935806200021d6000396000f3fe608060405234801561001057600080fd5b50600436106101005760003560e01c80638da5cb5b11610097578063c87b56dd11610066578063c87b56dd146102ab578063e985e9c5146102db578063eacabe141461030b578063f2fde38b1461033b57610100565b80638da5cb5b1461023757806395d89b4114610255578063a22cb46514610273578063b88d4fde1461028f57610100565b806323b872dd116100d357806323b872dd1461019f57806342842e0e146101bb5780636352211e146101d757806370a082311461020757610100565b806301ffc9a71461010557806306fdde0314610135578063081812fc14610153578063095ea7b314610183575b600080fd5b61011f600480360381019061011a919061180b565b610357565b60405161012c9190611853565b60405180910390f35b61013d610439565b60405161014a9190611907565b60405180910390f35b61016d6004803603810190610168919061195f565b6104cb565b60405161017a91906119cd565b60405180910390f35b61019d60048036038101906101989190611a14565b610550565b005b6101b960048036038101906101b49190611a54565b6106fc565b005b6101d560048036038101906101d09190611a54565b610b0c565b005b6101f160048036038101906101ec919061195f565b610b2c565b6040516101fe91906119cd565b60405180910390f35b610221600480360381019061021c9190611aa7565b610bdd565b60405161022e9190611ae3565b60405180910390f35b61023f610c94565b60405161024c91906119cd565b60405180910390f35b61025d610cbe565b60405161026a9190611907565b60405180910390f35b61028d60048036038101906102889190611b2a565b610d50565b005b6102a960048036038101906102a49190611c9f565b610ebb565b005b6102c560048036038101906102c0919061195f565b610f17565b6040516102d29190611907565b60405180910390f35b6102f560048036038101906102f09190611d22565b61100a565b6040516103029190611853565b60405180910390f35b61032560048036038101906103209190611e03565b61109e565b6040516103329190611ae3565b60405180910390f35b61035560048036038101906103509190611aa7565b611150565b005b60007f80ac58cd000000000000000000000000000000000000000000000000000000007bffffffffffffffffffffffffffffffffffffffffffffffffffffffff1916827bffffffffffffffffffffffffffffffffffffffffffffffffffffffff1916148061042257507f5b5e139f000000000000000000000000000000000000000000000000000000007bffffffffffffffffffffffffffffffffffffffffffffffffffffffff1916827bffffffffffffffffffffffffffffffffffffffffffffffffffffffff1916145b80610432575061043182611278565b5b9050919050565b60606000805461044890611e8e565b80601f016020809104026020016040519081016040528092919081815260200182805461047490611e8e565b80156104c15780601f10610496576101008083540402835291602001916104c1565b820191906000526020600020905b8154815290600101906020018083116104a457829003601f168201915b5050505050905090565b60006104d6826112e2565b610515576040517f08c379a000000000000000000000000000000000000000000000000000000000815260040161050c90611f31565b60405180910390fd5b6004600083815260200190815260200160002060009054906101000a900473ffffffffffffffffffffffffffffffffffffffff169050919050565b600061055b82610b2c565b90508073ffffffffffffffffffffffffffffffffffffffff168373ffffffffffffffffffffffffffffffffffffffff16036105cb576040517f08c379a00000000000000000000000000000000000000000000000000000000081526004016105c290611f9d565b60405180910390fd5b8073ffffffffffffffffffffffffffffffffffffffff163373ffffffffffffffffffffffffffffffffffffffff16148061060b575061060a813361100a565b5b61064a576040517f08c379a00000000000000000000000000000000000000000000000000000000081526004016106419061202f565b60405180910390fd5b826004600084815260200190815260200160002060006101000a81548173ffffffffffffffffffffffffffffffffffffffff021916908373ffffffffffffffffffffffffffffffffffffffff160217905550818373ffffffffffffffffffffffffffffffffffffffff168273ffffffffffffffffffffffffffffffffffffffff167f8c5be1e5ebec7d5bd14f71427d1e84f3dd0314c0f7b2291e5b200ac8c7c3b92560405160405180910390a4505050565b610705816112e2565b610744576040517f08c379a000000000000000000000000000000000000000000000000000000000815260040161073b906120c1565b60405180910390fd5b61074d81610b2c565b73ffffffffffffffffffffffffffffffffffffffff163373ffffffffffffffffffffffffffffffffffffffff161480610794575061079361078d82610b2c565b3361100a565b5b806107d257503373ffffffffffffffffffffffffffffffffffffffff166107ba826104cb565b73ffffffffffffffffffffffffffffffffffffffff16145b610811576040517f08c379a000000000000000000000000000000000000000000000000000000000815260040161080890612153565b60405180910390fd5b8273ffffffffffffffffffffffffffffffffffffffff1661083182610b2c565b73ffffffffffffffffffffffffffffffffffffffff1614610887576040517f08c379a000000000000000000000000000000000000000000000000000000000815260040161087e906121bf565b60405180910390fd5b600073ffffffffffffffffffffffffffffffffffffffff168273ffffffffffffffffffffffffffffffffffffffff16036108f6576040517f08c379a00000000000000000000000000000000000000000000000000000000081526004016108ed9061222b565b60405180910390fd5b60006004600083815260200190815260200160002060006101000a81548173ffffffffffffffffffffffffffffffffffffffff021916908373ffffffffffffffffffffffffffffffffffffffff160217905550808273ffffffffffffffffffffffffffffffffffffffff1661096a83610b2c565b73ffffffffffffffffffffffffffffffffffffffff167f8c5be1e5ebec7d5bd14f71427d1e84f3dd0314c0f7b2291e5b200ac8c7c3b92560405160405180910390a46001600360008573ffffffffffffffffffffffffffffffffffffffff1673ffffffffffffffffffffffffffffffffffffffff16815260200190815260200160002060008282546109fc919061227a565b925050819055506001600360008473ffffffffffffffffffffffffffffffffffffffff1673ffffffffffffffffffffffffffffffffffffffff1681526020019081526020016000206000828254610a5391906122ae565b92505081905550816002600083815260200190815260200160002060006101000a81548173ffffffffffffffffffffffffffffffffffffffff021916908373ffffffffffffffffffffffffffffffffffffffff160217905550808273ffffffffffffffffffffffffffffffffffffffff168473ffffffffffffffffffffffffffffffffffffffff167fddf252ad1be2c89b69c2b068fc378daa952ba7f163c4a11628f55a4df523b3ef60405160405180910390a4505050565b610b2783838360405180602001604052806000815250610ebb565b505050565b6000806002600084815260200190815260200160002060009054906101000a900473ffffffffffffffffffffffffffffffffffffffff169050600073ffffffffffffffffffffffffffffffffffffffff168173ffffffffffffffffffffffffffffffffffffffff1603610bd4576040517f08c379a0000000000000000000000000000000000000000000000000000000008152600401610bcb90612376565b60405180910390fd5b80915050919050565b60008073ffffffffffffffffffffffffffffffffffffffff168273ffffffffffffffffffffffffffffffffffffffff1603610c4d576040517f08c379a0000000000000000000000000000000000000000000000000000000008152600401610c4490612408565b60405180910390fd5b600360008373ffffffffffffffffffffffffffffffffffffffff1673ffffffffffffffffffffffffffffffffffffffff168152602001908152602001600020549050919050565b6000600860009054906101000a900473ffffffffffffffffffffffffffffffffffffffff16905090565b606060018054610ccd90611e8e565b80601f0160208091040260200160405190810160405280929190818152602001828054610cf990611e8e565b8015610d465780601f10610d1b57610100808354040283529160200191610d46565b820191906000526020600020905b815481529060010190602001808311610d2957829003601f168201915b5050505050905090565b8173ffffffffffffffffffffffffffffffffffffffff163373ffffffffffffffffffffffffffffffffffffffff1603610dbe576040517f08c379a0000000000000000000000000000000000000000000000000000000008152600401610db590612474565b60405180910390fd5b80600560003373ffffffffffffffffffffffffffffffffffffffff1673ffffffffffffffffffffffffffffffffffffffff16815260200190815260200160002060008473ffffffffffffffffffffffffffffffffffffffff1673ffffffffffffffffffffffffffffffffffffffff16815260200190815260200160002060006101000a81548160ff0219169083151502179055508173ffffffffffffffffffffffffffffffffffffffff163373ffffffffffffffffffffffffffffffffffffffff167f17307eab39ab6107e8899845ad3d59bd9653f200f220920489ca2b5937696c3183604051610eaf9190611853565b60405180910390a35050565b610ec68484846106fc565b610ed28484848461134e565b610f11576040517f08c379a0000000000000000000000000000000000000000000000000000000008152600401610f0890612506565b60405180910390fd5b50505050565b6060610f22826112e2565b610f61576040517f08c379a0000000000000000000000000000000000000000000000000000000008152600401610f5890612572565b60405180910390fd5b6000600660008481526020019081526020016000208054610f8190611e8e565b80601f0160208091040260200160405190810160405280929190818152602001828054610fad90611e8e565b8015610ffa5780601f10610fcf57610100808354040283529160200191610ffa565b820191906000526020600020905b815481529060010190602001808311610fdd57829003601f168201915b5050505050905080915050919050565b6000600560008473ffffffffffffffffffffffffffffffffffffffff1673ffffffffffffffffffffffffffffffffffffffff16815260200190815260200160002060008373ffffffffffffffffffffffffffffffffffffffff1673ffffffffffffffffffffffffffffffffffffffff16815260200190815260200160002060009054906101000a900460ff16905092915050565b60003373ffffffffffffffffffffffffffffffffffffffff166110bf610c94565b73ffffffffffffffffffffffffffffffffffffffff1614611115576040517f08c379a000000000000000000000000000000000000000000000000000000000815260040161110c906125de565b60405180910390fd5b60076000815480929190611128906125fe565b9190505550611139836007546114c9565b61114560075483611688565b600754905092915050565b3373ffffffffffffffffffffffffffffffffffffffff1661116f610c94565b73ffffffffffffffffffffffffffffffffffffffff16146111c5576040517f08c379a00000000000000000000000000000000000000000000000000000000081526004016111bc906125de565b60405180910390fd5b600073ffffffffffffffffffffffffffffffffffffffff168173ffffffffffffffffffffffffffffffffffffffff1603611234576040517f08c379a000000000000000000000000000000000000000000000000000000000815260040161122b906126b8565b60405180910390fd5b80600860006101000a81548173ffffffffffffffffffffffffffffffffffffffff021916908373ffffffffffffffffffffffffffffffffffffffff16021790555050565b60007f01ffc9a7000000000000000000000000000000000000000000000000000000007bffffffffffffffffffffffffffffffffffffffffffffffffffffffff1916827bffffffffffffffffffffffffffffffffffffffffffffffffffffffff1916149050919050565b60008073ffffffffffffffffffffffffffffffffffffffff166002600084815260200190815260200160002060009054906101000a900473ffffffffffffffffffffffffffffffffffffffff1673ffffffffffffffffffffffffffffffffffffffff1614159050919050565b6000808473ffffffffffffffffffffffffffffffffffffffff163b11156114bc578373ffffffffffffffffffffffffffffffffffffffff1663150b7a02338786866040518563ffffffff1660e01b81526004016113ae949392919061272d565b6020604051808303816000875af19250505080156113ea57506040513d601f19601f820116820180604052508101906113e7919061278e565b60015b61146c573d806000811461141a576040519150601f19603f3d011682016040523d82523d6000602084013e61141f565b606091505b506000815103611464576040517f08c379a000000000000000000000000000000000000000000000000000000000815260040161145b90612506565b60405180910390fd5b805181602001fd5b63150b7a0260e01b7bffffffffffffffffffffffffffffffffffffffffffffffffffffffff1916817bffffffffffffffffffffffffffffffffffffffffffffffffffffffff1916149150506114c1565b600190505b949350505050565b600073ffffffffffffffffffffffffffffffffffffffff168273ffffffffffffffffffffffffffffffffffffffff1603611538576040517f08c379a000000000000000000000000000000000000000000000000000000000815260040161152f90612807565b60405180910390fd5b611541816112e2565b15611581576040517f08c379a000000000000000000000000000000000000000000000000000000000815260040161157890612873565b60405180910390fd5b600360008373ffffffffffffffffffffffffffffffffffffffff1673ffffffffffffffffffffffffffffffffffffffff16815260200190815260200160002060008154809291906115d1906125fe565b9190505550816002600083815260200190815260200160002060006101000a81548173ffffffffffffffffffffffffffffffffffffffff021916908373ffffffffffffffffffffffffffffffffffffffff160217905550808273ffffffffffffffffffffffffffffffffffffffff16600073ffffffffffffffffffffffffffffffffffffffff167fddf252ad1be2c89b69c2b068fc378daa952ba7f163c4a11628f55a4df523b3ef60405160405180910390a45050565b611691826112e2565b6116d0576040517f08c379a00000000000000000000000000000000000000000000000000000000081526004016116c7906128df565b60405180910390fd5b806006600084815260200190815260200160002090805190602001906116f79291906116fc565b505050565b82805461170890611e8e565b90600052602060002090601f01602090048101928261172a5760008555611771565b82601f1061174357805160ff1916838001178555611771565b82800160010185558215611771579182015b82811115611770578251825591602001919060010190611755565b5b50905061177e9190611782565b5090565b5b8082111561179b576000816000905550600101611783565b5090565b6000604051905090565b600080fd5b600080fd5b60007fffffffff0000000000000000000000000000000000000000000000000000000082169050919050565b6117e8816117b3565b81146117f357600080fd5b50565b600081359050611805816117df565b92915050565b600060208284031215611821576118206117a9565b5b600061182f848285016117f6565b91505092915050565b60008115159050919050565b61184d81611838565b82525050565b60006020820190506118686000830184611844565b92915050565b600081519050919050565b600082825260208201905092915050565b60005b838110156118a857808201518184015260208101905061188d565b838111156118b7576000848401525b50505050565b6000601f19601f8301169050919050565b60006118d98261186e565b6118e38185611879565b93506118f381856020860161188a565b6118fc816118bd565b840191505092915050565b6000602082019050818103600083015261192181846118ce565b905092915050565b6000819050919050565b61193c81611929565b811461194757600080fd5b50565b60008135905061195981611933565b92915050565b600060208284031215611975576119746117a9565b5b60006119838482850161194a565b91505092915050565b600073ffffffffffffffffffffffffffffffffffffffff82169050919050565b60006119b78261198c565b9050919050565b6119c7816119ac565b82525050565b60006020820190506119e260008301846119be565b92915050565b6119f1816119ac565b81146119fc57600080fd5b50565b600081359050611a0e816119e8565b92915050565b60008060408385031215611a2b57611a2a6117a9565b5b6000611a39858286016119ff565b9250506020611a4a8582860161194a565b9150509250929050565b600080600060608486031215611a6d57611a6c6117a9565b5b6000611a7b868287016119ff565b9350506020611a8c868287016119ff565b9250506040611a9d8682870161194a565b9150509250925092565b600060208284031215611abd57611abc6117a9565b5b6000611acb848285016119ff565b91505092915050565b611add81611929565b82525050565b6000602082019050611af86000830184611ad4565b92915050565b611b0781611838565b8114611b1257600080fd5b50565b600081359050611b2481611afe565b92915050565b60008060408385031215611b4157611b406117a9565b5b6000611b4f858286016119ff565b9250506020611b6085828601611b15565b9150509250929050565b600080fd5b600080fd5b7f4e487b7100000000000000000000000000000000000000000000000000000000600052604160045260246000fd5b611bac826118bd565b810181811067ffffffffffffffff82111715611bcb57611bca611b74565b5b80604052505050565b6000611bde61179f565b9050611bea8282611ba3565b919050565b600067ffffffffffffffff821115611c0a57611c09611b74565b5b611c13826118bd565b9050602081019050919050565b82818337600083830152505050565b6000611c42611c3d84611bef565b611bd4565b905082815260208101848484011115611c5e57611c5d611b6f565b5b611c69848285611c20565b509392505050565b600082601f830112611c8657611c85611b6a565b5b8135611c96848260208601611c2f565b91505092915050565b60008060008060808587031215611cb957611cb86117a9565b5b6000611cc7878288016119ff565b9450506020611cd8878288016119ff565b9350506040611ce98782880161194a565b925050606085013567ffffffffffffffff811115611d0a57611d096117ae565b5b611d1687828801611c71565b91505092959194509250565b60008060408385031215611d3957611d386117a9565b5b6000611d47858286016119ff565b9250506020611d58858286016119ff565b9150509250929050565b600067ffffffffffffffff821115611d7d57611d7c611b74565b5b611d86826118bd565b9050602081019050919050565b6000611da6611da184611d62565b611bd4565b905082815260208101848484011115611dc257611dc1611b6f565b5b611dcd848285611c20565b509392505050565b600082601f830112611dea57611de9611b6a565b5b8135611dfa848260208601611d93565b91505092915050565b60008060408385031215611e1a57611e196117a9565b5b6000611e28858286016119ff565b925050602083013567ffffffffffffffff811115611e4957611e486117ae565b5b611e5585828601611dd5565b9150509250929050565b7f4e487b7100000000000000000000000000000000000000000000000000000000600052602260045260246000fd5b60006002820490506001821680611ea657607f821691505b602082108103611eb957611eb8611e5f565b5b50919050565b7f417070726f76656420717565727920666f72206e6f6e6578697374656e74207460008201527f6f6b656e00000000000000000000000000000000000000000000000000000000602082015250565b6000611f1b602483611879565b9150611f2682611ebf565b604082019050919050565b60006020820190508181036000830152611f4a81611f0e565b9050919050565b7f417070726f76616c20746f2063757272656e74206f776e657200000000000000600082015250565b6000611f87601983611879565b9150611f9282611f51565b602082019050919050565b60006020820190508181036000830152611fb681611f7a565b9050919050565b7f417070726f76652063616c6c6572206973206e6f74206f776e6572206e6f722060008201527f617070726f76656420666f7220616c6c00000000000000000000000000000000602082015250565b6000612019603083611879565b915061202482611fbd565b604082019050919050565b600060208201905081810360008301526120488161200c565b9050919050565b7f4f70657261746f7220717565727920666f72206e6f6e6578697374656e74207460008201527f6f6b656e00000000000000000000000000000000000000000000000000000000602082015250565b60006120ab602483611879565b91506120b68261204f565b604082019050919050565b600060208201905081810360008301526120da8161209e565b9050919050565b7f5472616e736665722063616c6c6572206973206e6f74206f776e6572206e6f7260008201527f20617070726f7665640000000000000000000000000000000000000000000000602082015250565b600061213d602983611879565b9150612148826120e1565b604082019050919050565b6000602082019050818103600083015261216c81612130565b9050919050565b7f5472616e736665722066726f6d20696e636f7272656374206f776e6572000000600082015250565b60006121a9601d83611879565b91506121b482612173565b602082019050919050565b600060208201905081810360008301526121d88161219c565b9050919050565b7f5472616e7366657220746f20746865207a65726f206164647265737300000000600082015250565b6000612215601c83611879565b9150612220826121df565b602082019050919050565b6000602082019050818103600083015261224481612208565b9050919050565b7f4e487b7100000000000000000000000000000000000000000000000000000000600052601160045260246000fd5b600061228582611929565b915061229083611929565b9250828210156122a3576122a261224b565b5b828203905092915050565b60006122b982611929565b91506122c483611929565b9250827fffffffffffffffffffffffffffffffffffffffffffffffffffffffffffffffff038211156122f9576122f861224b565b5b828201905092915050565b7f4f776e657220717565727920666f72206e6f6e6578697374656e7420746f6b6560008201527f6e00000000000000000000000000000000000000000000000000000000000000602082015250565b6000612360602183611879565b915061236b82612304565b604082019050919050565b6000602082019050818103600083015261238f81612353565b9050919050565b7f41646472657373207a65726f206973206e6f7420612076616c6964206f776e6560008201527f7200000000000000000000000000000000000000000000000000000000000000602082015250565b60006123f2602183611879565b91506123fd82612396565b604082019050919050565b60006020820190508181036000830152612421816123e5565b9050919050565b7f417070726f76656420746f2063616c6c65720000000000000000000000000000600082015250565b600061245e601283611879565b915061246982612428565b602082019050919050565b6000602082019050818103600083015261248d81612451565b9050919050565b7f5472616e7366657220746f206e6f6e204552433732315265636569766572206960008201527f6d706c656d656e74657200000000000000000000000000000000000000000000602082015250565b60006124f0602a83611879565b91506124fb82612494565b604082019050919050565b6000602082019050818103600083015261251f816124e3565b9050919050565b7f55524920717565727920666f72206e6f6e6578697374656e7420746f6b656e00600082015250565b600061255c601f83611879565b915061256782612526565b602082019050919050565b6000602082019050818103600083015261258b8161254f565b9050919050565b7f43616c6c6572206973206e6f7420746865206f776e6572000000000000000000600082015250565b60006125c8601783611879565b91506125d382612592565b602082019050919050565b600060208201905081810360008301526125f7816125bb565b9050919050565b600061260982611929565b91507fffffffffffffffffffffffffffffffffffffffffffffffffffffffffffffffff820361263b5761263a61224b565b5b600182019050919050565b7f4e6577206f776e65722063616e6e6f7420626520746865207a65726f2061646460008201527f7265737300000000000000000000000000000000000000000000000000000000602082015250565b60006126a2602483611879565b91506126ad82612646565b604082019050919050565b600060208201905081810360008301526126d181612695565b9050919050565b600081519050919050565b600082825260208201905092915050565b60006126ff826126d8565b61270981856126e3565b935061271981856020860161188a565b612722816118bd565b840191505092915050565b600060808201905061274260008301876119be565b61274f60208301866119be565b61275c6040830185611ad4565b818103606083015261276e81846126f4565b905095945050505050565b600081519050612788816117df565b92915050565b6000602082840312156127a4576127a36117a9565b5b60006127b284828501612779565b91505092915050565b7f4d696e7420746f20746865207a65726f20616464726573730000000000000000600082015250565b60006127f1601883611879565b91506127fc826127bb565b602082019050919050565b60006020820190508181036000830152612820816127e4565b9050919050565b7f546f6b656e20616c7265616479206d696e746564000000000000000000000000600082015250565b600061285d601483611879565b915061286882612827565b602082019050919050565b6000602082019050818103600083015261288c81612850565b9050919050565b7f5552492073657420666f72206e6f6e6578697374656e7420746f6b656e000000600082015250565b60006128c9601d83611879565b91506128d482612893565b602082019050919050565b600060208201905081810360008301526128f8816128bc565b905091905056fea2646970667358221220752f50b4906e12b57fdce49056901543891d1a1b53c2365335ee6ae20742105a64736f6c634300080e0033",
  "immutableReferences": {},
  "source": "// SPDX-License-Identifier: GPL-3.0\r\npragma solidity ^0.8.7;\r\n\r\nimport \"./NFT-standard/ERC721.sol\";\r\nimport \"./NFT-standard/ERC721URIStorage.sol\";\r\n\r\n// Contract representing TRYlottery's NFT token\r\ncontract TRYNFT is ERC721URIStorage{\r\n    uint256 private _tokenIds;\r\n    address private _owner;\r\n\r\n    // The token will always have the same name and symbol\r\n    constructor() ERC721(\"TRYNFT\", \"TRY\") {\r\n        _owner = msg.sender;\r\n    }\r\n\r\n    function owner() public view returns (address) {\r\n        return _owner;\r\n    }\r\n\r\n    modifier onlyOwner() {\r\n        require(owner() == msg.sender, \"Caller is not the owner\");\r\n        _;\r\n    }\r\n\r\n    /* Calls ERC721's '_mint' function creating a new token with a unique id and\r\n    ERC721URIStorage's '_setTokenURI' function setting the location for tokent's metadata */\r\n    function mintNFT(address recipient, string memory tokenURI) public onlyOwner returns (uint256) {\r\n        _tokenIds++;\r\n        _mint(recipient, _tokenIds);\r\n        _setTokenURI(_tokenIds, tokenURI);\r\n\r\n        return _tokenIds;\r\n    }\r\n\r\n    // Transfers the ownership of this contract to a new address\r\n    function transferOwnership(address newOwner) public onlyOwner {\r\n        require(newOwner != address(0), \"New owner cannot be the zero address\");\r\n        _owner = newOwner;\r\n    }\r\n}",
  "sourcePath": "C:\\Users\\39340\\Desktop\\TRY Dapp\\contracts\\TRYNFT.sol",
  "compiler": {
    "name": "solc",
    "version": "0.8.14+commit.80d49f37.Emscripten.clang"
  },
  "schemaVersion": "3.4.7",
  "updatedAt": "2022-06-03T16:38:29.423Z",
  "devdoc": {
    "kind": "dev",
    "methods": {},
    "version": 1
  },
  "userdoc": {
    "kind": "user",
    "methods": {
      "name()": {
        "notice": "A descriptive name for a collection of NFTs in this contract"
      },
      "symbol()": {
        "notice": "An abbreviated name for NFTs in this contract"
      }
    },
    "version": 1
  }
}